:020000040800F2
:100000000000012091F504082DF604084DBA0108FE
:10001000A1B801082DF604082DF604080000000020
:100020000000000000000000000000002DF60408A1
:100030002DF60408000000002DF60408F1CB00089E
:100040002DF604082DF604082DF604082DF60408F4
:100050002DF604082DF60408F5A10008FDA10008FE
:1000600005A200080DA2000815A20008BD9D000809
:10007000D19D0008E59D0008F99D00080D9E00082F
:10008000219E0008359E00082DF604082DF6040870
:100090002DF604082DF604082DF604081DA200080C
:1000A000C9C40008C5C30008D9C40008B5C3000806
:1000B000EDC30008FDC300080DC40008BD9B000887
:1000C000B19B0008F19B0008E59B00082DF6040891
:1000D0002DF60408293F0408353F0408413F040871
:1000E00025A200082DF604082DF60408E9C400082E
:1000F000A1C400082DF6040891C40008499E000818
:100100002DF604082DF604081DC400082DF6040879
:100110004D3F0408593F04082DC40008B9AE040837
:100120005D9E0008719E0008859E0008999E00084B
:10013000AD9E00080000000000000000000000006C
:1001400000000000000000000000000011BB0408D7
:10015000C19E0008D59E0008E99E0008653F04087E
:10016000259C0008199C00082DF604082DF60408AB
:100170002DF604082DF60408000000000000000021
:100180002DF604082DF604082DF604082DF60408B3
:100190002DF604082DF60408000000002DF60408D2
:1001A0000000000000000000000000002DF6040820
:1001B0002DF604082DF604080000000000000000E1
:1001C000000000000000000000000000000000002F
:1001D0000000000000000000000000002DF60408F0
:10800000084A0346D0F8E4005268D3F8F010121A78
:1080100000209142B8BFC3F8F020012283F81C2150
:10802000704700BF001000E030B4046900234168CD
:108030004025E46882690C3154624469956053605C
:1080400093631160C2E90333C2E90533C2E9073320
:10805000C2E90A33C2E90C3384B1C269E0689363B0
:1080600050621160C2E90133C2E90333C2E905334A
:10807000C2E90733C2E90A33C2E90C3330BC7047A6
:10808000114A037A0168D35C10B4CC58CA1824F0A2
:108090000104CC501368DB07FCD4037D1F2B09D9E6
:1080A000203B20225DF8044B02FA03F343F018034F
:1080B000CB60704720225DF8044B02FA03F343F0D3
:1080C00018038B60704700BFDC940508F0B50668A4
:1080D000356A00295DD12B68AC68B769002B60D088
:1080E0009C46344B0CEA0303B3F1005F5DD00CF007
:1080F0001F0104F11F032CF01F02194421F01F017E
:10810000BFF34F8F00290BDD114402F12003DFF88C
:10811000A8E08B42CEF868221A4603F12003F8D17A
:10812000BFF34F8FBFF36F8F02684FF480637B61A3
:108130005369C7F804C03C6253B36B68F569002B00
:1081400035D01E461B4B3340B3F1005F1BD006F009
:108150001F0104F11F0326F01F02194421F01F0123
:10816000BFF34F8F00290ADD114402F120031248AA
:108170008B42C0F870221A4603F12003F8D1BFF3F6
:108180004F8FBFF36F8F4FF480636E606B612C6213
:10819000F0BDEC69002CFBD06B691435B769002B7E
:1081A0009ED1DFF81CC03246C1E73246BDE7034E20
:1081B000EBE700BF0000FFFF00ED00E0040000203F
:1081C000000000201B4B016803F57D7C02E02C338E
:1081D00063452BD01A688A42F9D170B593F804E050
:1081E000427996450BD02C33634505D01A688A42F4
:1081F000F4D02C336345F9D14FF0FF3070BD9E466B
:1082000084680022DEF80C50A54208D001320EF13D
:108210000C0E032AE7D0DEF80C50A542F6D1DEF8AA
:108220001050C668B542F1D150B270BD4FF0FF306A
:10823000704700BF381505084368426D30B49A6135
:10824000EFF31182502383F312884168D2B2856C18
:108250000B68046D23EA050323430B6082F3118846
:10826000436981681A68096822F00102D0E908545C
:108270001A60826A1D605C615A60D0E90B429C60A2
:10828000DA600023B0F86C2030BCCA620377704714
:10829000002A4FEA014C034630B508BFE64600F11C
:1082A000C00514BF8E468C46002419680C3353F861
:1082B000042C43F8084C41EA0C0142EA0E02AB429E
:1082C00043F80C1C43F8042CEFD1D0F8C03043EA3B
:1082D0000E03C0E93144C0F8C03030BD836959692C
:1082E000B3F810C00A6830B49C6822F00102246818
:1082F0000A60E26822EA0C02E260027D00681F2A3E
:1083000006D9203A0824456894402C4242D0FEE722
:108310000824056894402C42F9D1202404FA02F282
:108320008260254A1278002A32D01A7F012A36D07C
:10833000D3F800210132C3F80021EFF3118150225C
:1083400082F312885868C9B29D6C0268DC6C22EA1C
:1083500005022243026081F311885A699968D3E9C2
:108360000D40096814605061D3E90F40546090607B
:108370005C6CB3F8B400D4600124C8621068204378
:1083800010601A8A1C7783F8FD40CB681343CB60DA
:1083900030BC7047202404FA02F2C260C1E7002218
:1083A000D3F8040183F8FD2001300A68C3F8040102
:1083B00022F001020A60EBE7E001002010B40C4C4F
:1083C0006368002B11DD002004F1080C0146DCF885
:1083D000AC3003F1C00259600C339342FBD1013041
:1083E00063680CF5867C8342F1DC5DF8044B7047D2
:1083F000E0010020704700BF024B03EB401393F8ED
:1084000055047047E0010020D0E90920131A5842B2
:108410005841704790F8573830B53BB990F8551827
:10842000012490F85638DAB2914200D830BD04FAEF
:1084300003F2B0F85E5801332A43A0F85E28F2E751
:108440000379024613F0010006D0D2E90731D26861
:108450005B1A013A03EA0200704710B5037904463B
:1084600013F001030ED0FFF7EBFF034650B1226A71
:108470006369E1689B5C0132B2FBF1F0DBB201FBA6
:1084800010222262184610BD03799B070AD5436A61
:108490008269D154436A02690133B3FBF2F102FBF2
:1084A0001133436270477047017170470379014689
:1084B00013F0020007D00B69D1E90921013B521AE0
:1084C0001A40D2B2981A704770B50E494FF0010E9B
:1084D0000D4D0E4C0E4E35F802CB00234CFA03F234
:1084E0000EFA03F0013312F0010F03D00C600831D3
:1084F00021F8040C102BF1D104F58064B442EAD1C8
:1085000070BD00BF001901202C19050800000240B1
:108510000018024010B584464FEA810E102312F471
:10852000004F4FEA420214BF0E240724013B92B2CF
:10853000CCF80040F444F2D100EB81128C010351DD
:10854000122042F8213010BD10B584464FEA810E4A
:108550000424130B013C4FEA021203EB430392B2D3
:1085600003F11803CCF80030F444F2D100EB01130E
:108570000A018450062043F8214010BD704700BF17
:10858000704700BF00EB4000024B03EBC00393F8C1
:1085900049057047E0010020064B93F8F825824218
:1085A00006D900EB400003EBC003D3F84C0570473D
:1085B00000207047E00100200A4991F8FC357BB1AA
:1085C000002301F5A761184651F823200633002A3D
:1085D000FAD0106051F823200633002AF9D1F3E7CE
:1085E000704700BFE00100200A4991F8FC357BB1DB
:1085F000002301F5A761184651F823200633002A0D
:10860000FAD0106051F823200633002AF9D1F3E79D
:10861000704700BFE0010020214B187800283ED1B0
:108620002DE9F0411F4C94F8FC35002B35D004F5B2
:10863000A7634FF0500E1C4E4FF02C0C1B4D05E065
:1086400053F8181B94F8FC25086032B31A7C002AF2
:10865000F6D05968FE278A0AA2F58012522A2A44C7
:1086600098BF92F80074EFF311828EF31288D1F85C
:1086700024800CFB0767D2B208F10108C7F82883F1
:108680004F6947F001074F6182F3118853F8181BB7
:1086900094F8FC250860002AD8D1BDE8F081704725
:1086A00000000120E0010020001901203815050814
:1086B00000EE100AB8EE400A704700BFBCEEC00AD8
:1086C00010EE103A98B2704707280AD800EB8000E5
:1086D000054B03EB4013B3F80006B0FA80F04009F5
:1086E00070470020704700BFE0010020072807D82E
:1086F000044B00EB8000012203EB401383F80226B9
:10870000704700BFE0010020072808D8044B03EBA6
:10871000401393F8542412B1012283F83A2470478D
:10872000E0010020072808D8054B03EB4013B3F8FD
:108730003804B0FA80F0400970470020704700BF4D
:10874000E0010020054B93F8F825824204D903EBA1
:108750004013D3F84404704700207047E001002024
:108760000346012200205A77704700BF826908B58E
:108770000346006BD96A02449A6101B18847002020
:1087800008BD00BF436A02461B681B6A5B685B78D2
:1087900013F0010008BF5077704700BFC2628161CB
:1087A000704700BF704700BF043070470C4B93F810
:1087B0009825D3F8941502440144D2B2C3F8941515
:1087C00083F8982593F89825120605D593F89825EF
:1087D00082F0800283F89825024B01225A7070477C
:1087E00000190120000001202DE9F84F164FD7F89D
:1087F0009C55ED0A23D00026DFF850A007F5B46998
:10880000B0467419D7F8A0154FF01003524648BF70
:108810000134D1F828B04846C7F8CC856410E1028D
:10882000D8470F280BDD094B03F1100153F8042B37
:10883000013207D18B42F9D12546B542E1DCE8028D
:10884000BDE8F88F661CF8E7001901200800002039
:10885000194BD3F8D415D3F8D8258A1A322A04D85C
:10886000D3F8EC258A4211D37047D3F8DC1549B10F
:1088700093F8E825888802F001020968120100FADD
:1088800002F28A610022C3F8EC257047D3F8DC2598
:108890006AB110683231928810B44469C3F8EC159B
:1088A00022425DF8044B18BF1204826170473231D6
:1088B000C3F8EC15704700BF00190120074AD2F831
:1088C000DC354BB192F8E8259988186802F001036D
:1088D0001B0101FA03F38361002070470019012096
:1088E000044B4FF4007C0020D3F8F835A2F800C008
:1088F0000B6070470019012000207047012070476D
:108900000120704700207047134BD0F8D8105B68E7
:10891000D0F8E02010B50446581A824200DC22B993
:10892000D4F8E4200A44C4F8DC2094F8D020C4F839
:10893000D830012A05D0D4F8D4300133C4F8D4306B
:1089400010BD04F1E801201D3AF036FED4F8D43011
:108950000133C4F8D43010BD001000E0CB070DD4B3
:1089600030B590F828308DB0C468012B07D0B4F131
:10897000807F01D9012303770DB030BD70471A4BBA
:10898000456AD3F82816D3F82C36B1EB930F4FEA8B
:1089900093024FF0020306D252085B0091429BB251
:1089A00001D2FF2BF8D9B4F1807FAB80E4D901224A
:1089B000002301A9B7240277284604928DF81420D9
:1089C0008DF828208DF804400B93CDE9021302A9FD
:1089D000CDE90633CDE908333AF0EEFD2A68136A93
:1089E000002BFCD1C8E700BF0019012030B590F87A
:1089F00028308BB00446012B08D0407F10B90120ED
:108A00000BB030BD002363770BB030BD456A2B68D7
:108A10001A7B22BB637F002BF1D013490220002375
:108A200001220290081D8DF80C208DF8202009935A
:108A3000CDE9001069462846CDE90433CDE9063377
:108A40003AF0BAFD2A68136A002BFCD1074B5B7F12
:108A5000D84303F0010300F001006377D4E71B6AF9
:108A6000002BD7D00020CBE718000020000000200A
:108A700030B504468BB094F82830012B08D0637FC2
:108A80000BB10023637701200BB030BD1B6A23B10B
:108A9000656A2B681A7B002AF8D1637F002BF2D01D
:108AA00010490220002301220290081D8DF80C209D
:108AB0008DF820200993CDE9001069462846CDE9BC
:108AC0000433CDE906333AF077FD2A68136A002BA8
:108AD000FCD1054B5B7F03F00102DB076277D2D547
:108AE000C9E700BF1800002000000020224A002330
:108AF00030B5044695B0101D204D0693019002201C
:108B00000B931093139311930290207F009204957E
:108B1000CDE90E3301238DF80C3007938DF820300A
:108B20008DF834308DF8483002F10803083A059387
:108B3000031D0A920C93124B0993636A1A68136A15
:108B4000002BFCD1A8B10F480A0E00F1220380F8D7
:108B500021200A0A9970080C69465A701870606AD8
:108B60003AF02AFD636A1A68136A002BFCD115B02B
:108B700030BD054BEDE700BF2800002085870008C9
:108B800061870008000000202100002010B594B08B
:108B9000044650220749684648F0B2F86946606AC0
:108BA0003AF00AFD636A1A68136A002BFCD114B00C
:108BB00010BD00BF8C190508F8B50546406A00686D
:108BC000046A002CFCD12C7FA869002C36D0234EDF
:108BD000040E052786F835403636B0704FEA104C43
:108BE000000A1F4C86F800C0012B70704FF0000087
:108BF0000E68676326641668A6642E63A06520D09D
:108C0000022B1AD15368012220651E444968E3658E
:108C1000144B84F84C0061652E6384F86020636611
:108C2000114B6A7FA3F11401686A002A08BF194634
:108C30003AF0C2FCEB6A5BB1286BF8BD04270B4E1F
:108C4000CBE7084A84F84C306065E0652265E7E7C9
:108C50006B6A1A68136A002BFCD1EDE70000002054
:108C6000000001206D870008180001203500002059
:108C700000B583B08161019201A9049A0093012398
:108C8000C2626A46FFF798FF03B05DF804FB00BFBD
:108C900070B51D46436A94B006461B681C6A002CDA
:108CA000FCD1324B0B9203F14402314806940092FE
:108CB00003F14802049003F13C0001920222059066
:108CC000029201228DF820408DF80C208DF834207E
:108CD0008DF84820327F0C95101D1394CDE909447E
:108CE000CDE90E44CDE910440790002A3CD00A0E8D
:108CF0003E3303F8012C0A0C99701E4C090A1A70B5
:108D00005970D4F82C26D4F828369108706AB3EB41
:108D1000920F4FF0020206D2490852008B4292B2E3
:108D200001D2FF2AF8D9737F8280DBB169463AF01D
:108D300043FC706A03681A6A002AFCD1D4F82C3606
:108D40000222D4F830469908B4EB930F06D24908B2
:108D500052008C4292B201D2FF2AF8D98280284672
:108D600014B070BD05A9E2E73D33C4E70000002060
:108D700085870008001901208269F0B592F8DC307F
:108D80008BB00546012B27D0023B012B2FD892F840
:108D90004C31EC46D2F89C2063F07F03154C1370E5
:108DA0008669D6F8A0305F1C0FCCACE80F00D6F86F
:108DB0009C30CDE900370FCCACE80F0094E80300FD
:108DC0008CE80300694606F110003AF0F5FBAA6949
:108DD00011690B6A002BFCD1D2F8A0305A8852BA24
:108DE000EA819A8852BA2A82DB885BBA6B820120B8
:108DF0000BB0F0BDDC190508F0B590F8DC308BB095
:108E00000446D0F8A060012B4BD034D9023B012B93
:108E10002ED890F84D31EC46D0F89C2063F07F03BB
:108E2000434D1370D0F8A0305F1C0FCDACE80F009D
:108E3000D4F89C30CDE900370FCDACE80F0095E8B1
:108E400003008CE80300694604F110003AF0B4FB1B
:108E50002269136A002BFCD173885BBAA4F8D03066
:108E6000B3885BBAA4F8D230F3885BBAA4F8D430E4
:108E700001200BB0F0BDD0F89C304FF0FF3205213F
:108E80001A605A609A60DA60D0F8E030C0F8F010EA
:108E9000B3F57A7F1FD8032380F8DC3001200BB0B4
:108EA000F0BD90F84C2190F84D319B1A5B100133C6
:108EB000DBB236F8132006EB430653BAA0F8D030E5
:108EC00073885BBAA0F8D230B3885BBAA0F8D4300C
:108ED00001200BB0F0BD03691A7B2AB35B691BB399
:108EE00090F8983003B390F84C310122D0F89C00F0
:108EF00063F07F03C4F8A4400E49037094F84D3129
:108F000094F84C0184F800211B1A84F8DC20D4F872
:108F1000A0200733C4F804110132D4F89C10C4E92E
:108F20003E23C4F8F410A3E7022384F8DC309FE763
:108F3000DC190508018000082DE9F0414FF4257285
:108F40008EB000215E4847F033FF5E4B5E4D4FF020
:108F500000085A6C40F22227A5F2CC4605F6880498
:108F600042F001025A645A6C02F001020092009A27
:108F70001A6C42F001021A641A6C02F001020192AA
:108F8000019A1A6C42F002021A641A6C02F0020290
:108F90000292029A1A6C42F004021A641A6C02F0ED
:108FA00004020392039A1A6C42F008021A641A6CC3
:108FB00002F008020492049A1A6C42F010021A6439
:108FC0001A6C02F010020592059A1A6C42F0200207
:108FD0001A641A6C02F020020692069A5A6C42F049
:108FE00002025A645A6C02F002020792079A5A6C03
:108FF00042F480325A645A6C02F480320892089A21
:109000005A6C42F400325A645A6C02F400320992EB
:10901000099A5A6C42F480225A645A6C02F48022F3
:109020000A920A9A1A6C42F040021A641A6C02F010
:1090300040020B920B9A1A6C42F080021A641A6C6E
:1090400002F080020C920C9A1A6C42F480721A643C
:109050001B6C03F480730D930D9B55F828100023AF
:1090600054F83320914226D001330E2BF8D1002042
:1090700008F1070840F05EF8B845EED14FF000085F
:1090800040F2222755F82810002354F8332091424B
:109090000CD001330E2BF8D1002008F1070840F066
:1090A00049F8B845EED10EB0BDE8F08106EBC30338
:1090B00093F8580DF1E706EBC30393F8580DD7E783
:1090C000001C012000380240041A05082DE9F04177
:1090D0000468D4E904351A7DD3E90061002D4DD030
:1090E0001F2AA86138D820202F6800FA02F242F027
:1090F0001802B2602A7D1F2A39D9203A202000FAAE
:1091000002F242F01802FA606A68002008601060FB
:109110003046116841F01001116093F80880A2698F
:10912000414644F05DF92D7AE2693846294644F01B
:1091300057F9274B626813F80800595D335843F01C
:10914000010333507B5843F001037B50536843F0D5
:1091500003035360BDE8F081203A20202F6800FA15
:1091600002F242F01802F2602A7D1F2AC5D82020A0
:1091700000FA02F242F01802BA60C5E71F2A9861AD
:109180001ED8202000FA02F242F01802B26000223B
:1091900030460A600A6842F010020A601D7AA2692D
:1091A000294644F01DF90A4B6268595D735843F033
:1091B00001037350536843F002035360BDE8F0812C
:1091C000203A202000FA02F242F01802F260DEE7B4
:1091D000DC9405082DE9F041DFF8B48008EB401776
:1091E00097F854340BB9BDE8F08104460D464601AA
:1091F00048F062F9C0BB2448464400EB4410A6F88E
:10920000385448F05DF998F80030D6F85024A3B1EE
:10921000D6F83C140124D2F8AC308C4003F1C001E4
:10922000420010F4004F90B202D15A6822435A60B3
:109230000C339942F4D1BDE8F081D6F83C140124F6
:10924000D2F8AC3001F1100203F1C00194404200A9
:1092500010F4004F90B202D15A6822435A600C3386
:109260008B42F4D1BDE8F081084B93F8942602EBD1
:10927000420203EBC203234493F84156002DBAD0B7
:10928000012387F83A34B6E71806002000190120B8
:10929000E001002010B5044647F05AF80146204688
:1092A00089B2BDE8104095E738B50B4D00EB4000A2
:1092B00005F5A763C40003EBC003254493ED027AD0
:1092C000D3ED037AE7EE007AB0EE670A47F040F894
:1092D000D5F83835186038BDE0010020F8B50C4BE2
:1092E0001D685A69154005405D617DB1094F012631
:1092F000B5FA85F4C4F11F0407EB840306FA04F4FD
:10930000D3F8980603689847A543F1D1F8BD00BF8C
:10931000003C01400019012002692DE9F843C368AF
:1093200012EA030828D005460E464FF00047B8FA67
:1093300088F327FA03F21B3BD24308EA02082A61AA
:10934000042B16D8DFE803F03B30251A0300B36A7C
:10935000002B3FD003F1FF3900231FFA89F9B362D4
:10936000746A34B123682046494698476468002CE3
:10937000F8D1B8F1000FDAD1BDE8F88370680028A1
:10938000F7D0696B036889B29847B8F1000FCED166
:10939000F2E7B0680028ECD0A96B036889B298475F
:1093A000B8F1000FC3D1E7E7F0680028E1D0E96B1E
:1093B000036889B29847B8F1000FB8D1DCE730698B
:1093C0000028D6D0296C036889B29847B8F1000FFD
:1093D000ADD1D1E7EB6A1FFA83F9C1E7836910B514
:1093E0001A4C04EB8303D3F8F8063BF083F9B4F886
:1093F00018370C2B0ED8DFE803F0220D0D0D1B0DD6
:109400000D0D070D0D0D1400D4F8D826D36823F4E4
:109410000063D3600122002384F8152784F81A37EB
:1094200010BDD4F8D826D36823F48053D360F1E775
:10943000D4F8D826D36823F48063D360EAE7D4F85D
:10944000D826D36823F40073D360E3E70019012022
:1094500080699C303BF04EB9F8B5A0F507642379DC
:10946000DB0725D5657994F8543805F001073D46AA
:10947000FBB1D4F848341A68D36A5B08536294F895
:10948000583823B1B4F862380133A4F8623885F053
:109490000101606C3EF0AAFE012384F857380023D6
:1094A00084F8553884F85638A4F85E3884F854386F
:1094B000F8BD94F85768012E03D194F8553884F814
:1094C00056382046FEF7A6FF4EB9012385EA030170
:1094D00084F85738606CBDE8F8403EF087BE002342
:1094E000394684F85738F5E770B505460726084C25
:1094F000013E00D170BD94F9000012F085FE031EFC
:1095000004DB6178EA189171A278EA540434EFE739
:10951000FC2205082DE9F843DDF820800F461646A9
:109520000021202204461D4647F042FCB8F1000FFE
:109530000CD0D8F80030B8F80A20E3811B0C238245
:10954000D8F804306282E3821B0C2383384645F04E
:10955000D1FAF30619D4431EB8B107EB000C01E0B1
:10956000013B12D31CF801EDBEF12E0FF8D1C01A49
:1095700003F10109421EB944032AA8BF0322082BA4
:10958000A8BF082390461A4606E008280246B946B6
:109590004FF00008A8BF08224FF02033394620467C
:1095A0002360636047F0ACFB164B04F108004246B1
:1095B00049462381837047F0A3FB611EE21D11F829
:1095C00001CFACF16103ACF1200C192B98BF81F8ED
:1095D00000C09142F3D104F10A0011F8013FA3F158
:1095E0006102203B192A98BF0B708142F5D11823E4
:1095F00065832D0CE6722373099BA582E361BDE8A8
:10960000F88300BF202020002DE9F04FDFF85894A8
:1096100085B0D9F8D405C9F8D805002B60D00C4620
:10962000154601F5FE7603EB020B1FE0002D64D01A
:10963000D9F80436AB4200F0C780D9F80036AB4207
:1096400000F0F980D9F80836D9F80C16AB424BD89F
:109650008D42C0F07481691A20463EF093FC0135BA
:1096600004F5007406F500765D4539D0D9F810266A
:10967000AA42DBD8AA1AD9F82076D308396B02F0AF
:10968000070802338B4202D3BA6B93420BD9394697
:10969000184603933EF046FC039B0746002800F063
:1096A0006E81C9F820063A79002A40F01F81D7F868
:1096B00028A0BAF1000F00F05B813A6B013520461B
:1096C0004FF400719B1AFA6804F5007406F50076F1
:1096D00008EBC3083B4602EB4822D0475D45C5D1A5
:1096E000002005B0BDE8F08F8D42B4D24FF4007277
:1096F0000021204647F05CFBB1E74FF40072294699
:10970000204647F055FB8023CB4A84F8BE310C231A
:1097100084F8C231D9F80016D9F8F8359142C4F866
:10972000C611C4F8CA3100F30F81C44A013BC44FCB
:1097300082FB0102C81787FB01C70A44C0EB621213
:10974000C0EB2730BF4F87FB02C7C2EB821C84F8F7
:10975000C1018010A1EB0C01174420F03F00013142
:109760000843D117C1EBE71184F8C0010A4484F81B
:10977000BF21B14A934200F3F380B04AB04882FB64
:109780000312D91780FB03701A44C1EB6212C1EBBC
:109790002031AC4880FB0270C2EB821784F8C511FF
:1097A0008910DB1B104421F03F0101331943D3170B
:1097B000C3EBE01384F8C4111A4484F8C3214AF6B9
:1097C0005523A4F8FE314AE74FF0FF3300274FF44A
:1097D000F072201D84F8EC31394684F8ED3184F8BC
:1097E000EE3184F8EF315223237063706123A3704C
:1097F00084F8E7314123E37084F8E631722384F87A
:10980000E43184F8E531D9F81836C4F8E83147F086
:10981000CFFA5523C4F8F07184F8FE316FF0550388
:10982000C4F8F471C4F8F87184F8FC7184F8FD711F
:1098300084F8FF3113E74FF400720021204647F00F
:10984000B7FA814B022203CB45F6EB032274227355
:1098500023809023A273A370F82384F82C2008227D
:10986000C4F803006273C4F807106375D9F80016D2
:10987000D9F8F8355B1AD9F808162362D9F80C36EE
:109880005B1A4AF6552163620023E372E373637740
:10989000A377E37784F82D3084F82E3084F82F30C6
:1098A00084F83130694BA3613E232377012384F888
:1098B0003030802384F84030654BC4F84230654B2B
:1098C00084F84620A4F8FE11634A03CBC4F84B1079
:1098D0001988C4F847009B78A4F84F1084F85130D9
:1098E00003CAC4F85200C4F85610B8E64FF4007228
:1098F0000021204647F05CFA3B6CB8F1000F45D1DF
:1099000004F1200A002B00F081803B6B11225349A7
:109910002046CDE90088FFF7FDFD3B6C1A6C002A5C
:1099200000F081801B6B504611224D49CDE9008823
:10993000FFF7F0FD04F1400A4FF4E07871E0E91A16
:1099400020463EF01FFB8AE6FF22013B84F8C1213E
:109950004FF6FF72A4F8BF21374A93427FF70DAF4D
:10996000FF2384F8C5314FF6FF73A4F8C33126E70F
:1099700051464FF40072204647F01AFA6FE6231F53
:10998000384A43F8042F9E42FBD168E6002B7F6CD7
:1099900014BF02230123C3EB0813002F3FF45FAE73
:1099A000013BBF6C002B01DD002FF9D1A2464FF423
:1099B0000078002F3FF453AE0AEB080303959A4654
:1099C0000BE00025A8F12008CDE900E5FFF7A2FD96
:1099D000BF6CCFB1B8F11F0F16D93D7907F11C0E3E
:1099E000112239683B6BAAEB0800002DE9D17A7986
:1099F000A8F120083D6942F02102CDE900E5FFF71A
:109A000089FDBF6C002FE5D1039D28E6CDE90088D4
:109A100043464FF4F0780822D9F8FC152046FFF7AA
:109A200079FD7F6CC5E75046434611220C49CDE9CC
:109A30000088FFF76FFD7DE7FF03FB0083200882AE
:109A40009755454181808080289405083F00FF009C
:109A500029940E0D349405084094050820940508B7
:109A600024940508DEADBEEF0019012010B490F873
:109A7000443000F10801484A012BC2F81C176DD090
:109A80008368464CD968A34221F46001D960D96843
:109A900041F46001D960996B21F440119963996B8D
:109AA00041F480119963996B21F4F8419963996BA2
:109AB00041F488419963996821F47021996099680B
:109AC0009960996821F44011996099689960596882
:109AD00021F480615960596821F4805159605969B5
:109AE0006FF30B0159615969596148D0D9682B4C02
:109AF00021F0E061A342D960D96841F0E061D9600A
:109B0000996B21F440119963996B41F48011996329
:109B1000996B21F478219963996B41F41021996331
:109B2000996821F47021996099689960996821F485
:109B30004011996099689960596821F48061596071
:109B4000596821F48051596099696FF30B0199614B
:109B5000996999611AD0002380F844301048114B5C
:109B6000848DC18D408D091BC2F82447C2F820079F
:109B70005DF8044B93FBF1F3C2F828377047D4F833
:109B8000041341F40001C4F80413AFE706494B681D
:109B900043F400034B60DEE7001901200020014080
:109BA000007AF01F8038010000230140704700BF99
:109BB00001483AF073BE00BF40200120084810B4AD
:109BC000D0F84037D0F8744799691A682CB1234609
:109BD00000F5E8605DF8044B18475DF8044B7047EA
:109BE0000019012001483AF059BE00BFA020012011
:109BF000084810B4D0F8A037D0F8D44799691A684B
:109C00002CB1234600F5F4605DF8044B18475DF86D
:109C1000044B70470019012001483AF03FBE00BFD5
:109C200000210120084810B4D0F80038D0F834489A
:109C300099691A682CB1234600F500605DF8044B61
:109C400018475DF8044B70470019012010B10368F4
:109C500082889A61704700BF18B1838802681B042C
:109C600093617047D3B2012B1DD802EB42020F4B18
:109C700010B54FEA820E03F5217C0EF1080402E0D4
:109C80001C3363450DD01A788242F9D15A788A4242
:109C9000F6D11A59002AF3D00EF1040E03EB0E0090
:109CA00010BD002010BD0020704700BF1423050820
:109CB00010B40C4C002304F6AC0C01E0152B0CD0B6
:109CC00003EB430201331CF802108142F6D1144425
:109CD00094F9AE085DF8044B70474FF0FF305DF823
:109CE000044B704700190120D3B2022B21D802EB9C
:109CF000420270B54FEA820E0F4C002223460EF14D
:109D00000C0503E001322C33172A10D01E68B04234
:109D1000F8D193F804C08C45F4D15E59002EF1D0EF
:109D20002C210EF1080301FB0233E01870BD002066
:109D300070BD0020704700BF38150508002838D0D6
:109D4000002330B51B4D90F804C005F6AC0401E0CB
:109D5000152B2CD003EB43020133A15C6145F7D1F5
:109D60001544046890F805E095F9AE38DAB2022A95
:109D70001DD803EB4303104800224FEA830C03462F
:109D80000CF10C0503E001322C33172A0FD01968AF
:109D90008C42F8D119797145F5D159590029F2D081
:109DA0002C210CF1080301FB0233184430BD0020C4
:109DB00030BD704700190120381505080348D0F858
:109DC0008C300BB17C301847704700BF0000012079
:109DD0000348D0F8B0300BB1A0301847704700BF2F
:109DE000000001200348D0F8D4300BB1C43018472C
:109DF000704700BF000001200348D0F8F8300BB1D5
:109E0000E8301847704700BF000001200348D0F831
:109E10001C3113B100F5867018477047000001200F
:109E20000348D0F8403113B100F5987018477047D7
:109E3000000001200348D0F8643113B100F5AA7086
:109E400018477047000001200348D0F8883113B14B
:109E500000F5BC7018477047000001200348D0F897
:109E6000AC3113B100F5CE701847704700000120E7
:109E70000348D0F8D03113B100F5E07018477047AF
:109E8000000001200348D0F8F43113B100F5F2705E
:109E900018477047000001200348D0F8183213B16A
:109EA00000F5027018477047000001200348D0F801
:109EB0003C3213B100F50B701847704700000120C9
:109EC0000348D0F8603213B100F51470184770479A
:109ED000000001200348D0F8843213B100F51D7052
:109EE00018477047000001200348D0F8A83213B18A
:109EF00000F52670184770470000012001380D4B0F
:109F00000D4A00EBC000116B03EB800310B4DB6F54
:109F100083B00A4CA34214BF4FF480034FF40013E4
:109F200019431163126B13400193019B03B05DF859
:109F3000044B7047000001200038024000600240DE
:109F40000138F8B500EBC000114C1D46114B04EB75
:109F5000800417460E46E06F984214BF9620952065
:109F60003FF0E8F894F99100B909C4F88C60C4F89E
:109F700094503EF01BFD94F99130002B07DB03F069
:109F80001F0001225B090449824041F82320F8BDEB
:109F9000000001200060024000E100E02DE9F04FE8
:109FA000834F85B04FF0010B4FF00009814D07F151
:109FB000A00A09E009F101090BF1010B28370AF1A8
:109FC000050AB9F1040F34D03B78022BF2D19AF98B
:109FD0000330591C00F0D580DAB2964608230C20D5
:109FE0005FFA89F1019710FB0230D3B2012B17D829
:109FF000714B02E01C33AB4212D01C78002CF9D11B
:10A000005E788E42F6D11F58002FF3D06B4EBC46BF
:10A010000096776801342436BC450DD0102CF8D159
:10A0200001320C30D3B29E45E0D2019F4FF00008C0
:10A0300028E005B0BDE8F08F5FFA84F8604C08F1C5
:10A04000FF3C0CEBCC0604EB8604B70094F8986058
:10A05000002EE5D102EB420239460CF0070C4046D7
:10A0600003EB820384F899B084F884C0DB68DDE9EF
:10A070000067C4F8883014230E4484F898303E6199
:10A08000FFF73CFF9AF904305A1C76D0DAB29646B4
:10A0900008230C205FFA89F110FB0230D3B2CDE91E
:10A0A00001878846012B18D8434B02E01C33AB4292
:10A0B00013D019780129F9D159784145F6D11F58A3
:10A0C000002FF3D03D4900240E4600917168013401
:10A0D00024368F4222D0102CF8D101320C30D3B26A
:10A0E0007345DFD9DDE90187B8F1000F40D008F1F1
:10A0F000FF3324223148002402FB03007C613861D5
:10A10000FDF7BEFF3846FDF78FFF23462246404647
:10A110002C49FFF715FF01233B734BE7E4B2284EB0
:10A12000611E039101EBC10106EB810C89009CF8D3
:10A130009860002ED1D1084602EB4202009903EB51
:10A1400082038CF899B001442046DB68DDE9018781
:10A15000CCF888301323796103998CF8983001F09A
:10A16000070E8CF884E0FFF7C9FEB8F1000F0CD1A0
:10A1700000220023C7E904231CE74FF0010E002250
:10A1800086E74FF0010E002228E77869FDF778FF97
:10A190003869FDF775FF3846FDF746FF334632460E
:10A1A00020460949FFF7CCFE01233B7302E700BFBD
:10A1B000F021012098250508142305087C000120C2
:10A1C00000000120A9B1000821B10008800AA0F513
:10A1D0008010522808D8054B034493F800340D2B07
:10A1E00002D8034AD056704700207047381505083A
:10A1F000CC9405080120FFF771B800BF0220FFF7DB
:10A200006DB800BF0420FFF769B800BF0820FFF752
:10A2100065B800BF1020FFF761B800BF4FF4787039
:10A22000FFF75CB84FF47C40FFF758B830B10368D3
:10A2300082881B691A4214BF01200020704700BFAA
:10A240002DE9F04F0E4683B004461546002800F075
:10A25000C7800268644B13449B0A644AC6F34119E1
:10A26000134413F8980C3EF065FFC6F38103B4F86D
:10A2700004E006F00301246801939EFAAEF0B0FA00
:10A2800080F001F1FF383EFA00F367D00122032786
:10A29000009603E001303EFA00F35ED002FA00F3CC
:10A2A00013EA0E03F6D0D4F800C093FAA3FBBBFA6E
:10A2B0008BFB93FAA3FABAFA8AFA4FEA4B0BB8F17E
:10A2C000010F4FEA4A0A07FA0BFB01FA0AFA2CEAD5
:10A2D0000B0C4CEA0A0CC4F800C04ED9D4F80CC0E0
:10A2E00093FAA3FBBBFA8BFB93FAA3FABAFA8AFAA6
:10A2F0004FEA4B0B02294FEA4A0A07FA0BFB09FA0D
:10A300000AFA2CEA0B0C4CEA0A0CC4F80CC0C1D1B6
:10A3100093FAA3FABAFA8AFA4FEA132CBAF1070FA2
:10A3200045DCD4F820C093FAA3FABAFA8AFA93FA71
:10A33000A3F34FF00F0BB3FA83F34FEA8A0A01300D
:10A340009B000BFA0AFA05FA03F32CEA0A0C4CEA12
:10A35000030323623EFA00F3A0D1009EB8F1010F7F
:10A3600008D86268C6F3001322EA0E020EFB03F35C
:10A370001343636003B0BDE8F08FD4F808C093FACC
:10A38000A3FBBBFA8BFB93FAA3FABAFA8AFA4FEA59
:10A390004B0B019E4FEA4A0A07FA0BFB06FA0AFA30
:10A3A0002CEA0B0C4CEA0A0CC4F808C096E7D4F867
:10A3B00024A09CFAACFBBBFA8BFB9CFAACF34FF0ED
:10A3C0000F0CB3FA83F34FEA8B0B9B000CFA0BFCD8
:10A3D00005FA03F32AEA0C0A4AEA0303636259E71F
:10A3E0004FF0FF3339E700BF0000FEBF30260508FD
:10A3F00000B125E770472DE9F84FBA4F60230646B4
:10A4000003FB0073D3F82C47D3F83487D3F83857BD
:10A41000002C00F05C81B8F1000F04D098F80630F1
:10A42000002B40F054811DB1AB79002B40F04F81DF
:10A43000731CDBB2B8F1000F04D0152288F8073086
:10A4400088F8062015B11622EB71AA714FF0600A48
:10A45000207C3EF06FFE29460AFB06FA404643F098
:10A460007BFE404607EB0A09042240F2145899F893
:10A470003C37002B0CBF4FF01E0B4FF03E0B5946E4
:10A48000FFF7B6FF2846984D042259465544FFF77A
:10A49000AFFF4C220021284646F08AFCD9F82C3721
:10A4A0009FED927AB0EE084A5B68F7EE003AB9F891
:10A4B0003EA74FF0000CC9F840378D4B9FED8D5AE9
:10A4C0009A688D4BC2F38222134413F8902CD7F86C
:10A4D0002C36D34007EE903AF8EE677AC7EE275A4B
:10A4E00007EE90AA9FED857AF8EEE77AC7EE274A45
:10A4F000DFED837AB0EE007AE5EE877AA5EE875A33
:10A5000025EE844A37EE856A74EEE72ABAF5C87FED
:10A510000CF1010ED5BF4FF49672782264233223DA
:10A5200007EE90EAD8BF4FF416791344A2F1320235
:10A53000F8EEE76AC8BF4FF4827907EE903AD4BFCD
:10A5400041464FF4FA7166EEA56AB8EEE77AC7EEB7
:10A55000267A07EE102A01EB0902B8EEC77A37EE29
:10A56000447A77EEE37AFCEEE77A17EE903AC7EE9C
:10A57000267AFCEEE77A17EE900A07EE909AB8EE8C
:10A58000E73A07EE902AF8EEE77A23EE243A83EED4
:10A59000277A37EE453A32EEC77AC3EE267A77EE5F
:10A5A000E37AFCEEE77A17EE901AC7EE267A77EE9A
:10A5B000E37AFCEEE77A17EE902A02F1020909EB42
:10A5C000010BB0EE467A07EE90BAF8EE677AA6EE87
:10A5D000A77AF4EEC74AF1EE10FA7CDC43EA0009F0
:10A5E0005FFA89F9B9F10F0F77D841EA02091FFA2A
:10A5F00089F9B9F1FF0F70D81B05000403F07F63E0
:10A6000092B200F47F0003433E4843EA0C7300EA31
:10A6100001210B4313436022284602FB06760027E4
:10A62000C6F844370123C6F84877C6F84C37C6F851
:10A630005077C6F85477C6F85C77C6F8607743F071
:10A64000A1F896F88137202BD9B21AD196F8803725
:10A65000012B16D0242386F88137D6F840371A68A4
:10A6600022F001021A601A6822F480521A601A68F5
:10A670001A601A6842F001021A6086F8811786F89B
:10A680008077002194F912003EF090F994F912209D
:10A69000A37C002A08DB5909012203F01F0302FAF8
:10A6A00003F3194A42F82130002194F911003EF0D9
:10A6B0007DF994F91120637C002A08DB59090122F5
:10A6C00003F01F0302FA03F30F4A42F82130BDE8FA
:10A6D000F88FF4461AE7013171E7BEF10F0FF8D198
:10A6E000002398E70019012040200120286B6E4EBE
:10A6F0000038024000001643302605080024744943
:10A700000000704200FFFF0000E100E008B10022FD
:10A7100096E5704770B50E4C94F8F865AEB104F547
:10A720008764002503E001352034B5420DD0237F36
:10A73000002BF8D0E06800220028F4D00135217DFC
:10A74000FFF77EFD2034B542F1D1012070BD00BF7E
:10A75000E001002038B590F8B2311C09013C052C0D
:10A760000FD81A4A054603F00F0302EB4402B2F871
:10A77000F40340FA03F2D20703D595F8BD21012A6C
:10A7800001D0012038BD9A40013A104046F0C0FC8B
:10A790000F4B104A234413F8883C034402EBC304D4
:10A7A00052F83320A38810691840EBD0002395F8A5
:10A7B000B3210221204685F8BD31FFF741FDD5F8D0
:10A7C0002021136843F008031360DAE73815050801
:10A7D000302605080019012038B5094C04F54075EC
:10A7E00002E00834AC4209D0A279002AF9D120460F
:10A7F00008342021FFF724FDAC42F5D138BD00BF5D
:10A8000000190120014B53F82000704750280040E8
:10A81000014B43F82010704750280040204B21483E
:10A82000196C214A41F0805130B482B01964196C1E
:10A83000FF2401F0805101910199016841F4807178
:10A840000160CA20196C41F480611964196C01F42B
:10A85000806100915321009D5462506251625B6F90
:10A86000DB0013D4114B00221149C3F85428C3F85C
:10A870005828C3F85C28C3F86028C3F86428C3F8D4
:10A880006828C3F8501802B030BC7047A2F50062C7
:10A89000074BD2F850289A42E4D102B030BC70473E
:10A8A00000380240007000400028004000200040B6
:10A8B0003166654230B583B0FFF7B0FF0320FFF784
:10A8C000A1FF01284CD0324C0025324A0523C4F8A0
:10A8D0009850C4F89C50C4F8A020C4F89430BFF33A
:10A8E0004F8FBFF36F8F4FF6FF01E2682A4B0A408C
:10A8F00013432A4AE360536F3AF05CF8284B294926
:10A90000A3FB0023D4F8FC209B0C42F08072C4F817
:10A91000FC20C1F8A439D1F82C362349234AA1FBE5
:10A92000031323499B09C2F8B01F5560013B11680E
:10A93000B3F1807F41F00101116007D34FF0E022B5
:10A94000136943F00403136103B030BD4FF0E022FC
:10A95000F0215361072384F8231095611361EDE71B
:10A9600002210320FFF754FF0C4B12485A6C124986
:10A9700042F480425A645B6C03F480430193019A71
:10A9800002680B68026083F308884B689847FEE70B
:10A9900000ED00E01B0000060005FA05003802404B
:10A9A00083DE1B4300190120D34D6210001000E02C
:10A9B00055CEACC5003801400000F01F2DE9F84F1E
:10A9C000D0F894700446524B00F16406FDB227F0B3
:10A9D000FF09826800F1180A103D4846D2F800804D
:10A9E000A3FB05352D09294642F042FD626D002387
:10A9F000B2F5807F84F858307ED00DD8102A00F050
:10AA000083805CD8012A45D0042A16BF6FF4006108
:10AA10006FF008013C230EE0B2F5805F70D0B2F514
:10AA2000803F3AD0B2F5806F15BF6FF400616FF0D0
:10AA300008013C230423324608F11806404656F824
:10AA400003C001EA0C01F150D4F854B0594641F06A
:10AA5000BBFFBBF5807F2DD023D8BBF1100F3ED0BC
:10AA600036D8BBF1010F02D0BBF1040F33D14FF048
:10AA7000080C336852462946484643EA0C033360C3
:10AA80004023236242F0ACFC3B6843F010033B6080
:10AA9000BDE8F88F6FF00801CDE76FF008013C23A7
:10AAA000C9E7BBF5805F22D0BBF5803F1AD0BBF56C
:10AAB000806F10D108F11C064FF0080CD9E7402A2E
:10AAC00015BF6FF400616FF008013C230023B2E76B
:10AAD000BBF1400FCBD03C364FF4006CC9E74FF4CC
:10AAE000006CC6E708F154064FF0080CC1E708F106
:10AAF0001C064FF4006CBCE76FF0080104239AE7D2
:10AB00006FF40061042396E76FF4006193E700BFE0
:10AB1000ABAAAAAA2DE9F0472422D0F8205100239D
:10AB20008168C0F8942104462A6800F5907722F0E5
:10AB300001022A602B606B60AB604279C0F824117F
:10AB40009102C0F89C3180F8903101F48051C0F836
:10AB50009431C0F83831C0F828111103C0F8983189
:10AB600001F40051C0F840310379C0F82C111102F2
:10AB700013F0010601F48061C0F8301103F0020106
:10AB800040F0CA80002940F0F080C0F8346194F8A9
:10AB9000BC314BB1D4F8443143F00803C4F844311C
:10ABA0004FF40043C4F8543112F00802D4F8943141
:10ABB00000F0F080002B00F0248124233846C4F8F4
:10ABC00094312B6823F001032B603AF043FA0128FB
:10ABD00017D0D4F84431002B40F016816B6823F471
:10ABE00090436B60AB6823F02203AB60AB6843F02B
:10ABF0000803AB6038462B6843F001032B6042F03A
:10AC000061FD002E5CD0D4F8FC60002E00F0DF80E7
:10AC1000D4F8043104F13C08C4E90F630023404632
:10AC2000C4E91133C4E91433C4E91833C4E91A334D
:10AC30004FF48033E3654FF48063E3644FF4807333
:10AC4000A36542F011FF404639F07AFCD4F898A190
:10AC5000C4F88C81BAF1200F67672ED1E36862696E
:10AC600099B252B3B1FA81F94FEA591929B394F85C
:10AC70009001012821D00B46A4F878112221C4F8B4
:10AC80009C914046C4F87421C4F898116A49C4F8EC
:10AC90008C90A1676949E1676949C4F8881005F19A
:10ACA000240139F0E7FC002800F0B680102384F876
:10ACB0009091C4F89C31C4F894A17368C4F814311D
:10ACC0002379980764D5D4F80051002D56D0D4F8D4
:10ACD0000821002304F19C06C4F8A8303046C4F8CB
:10ACE000B030C4E927524022C4F8A4204FF4806257
:10ACF000C4F8AC204FF48032C4E92D33C4E93033BA
:10AD0000C4E93233C4F8BC2042F0AEFE304639F01C
:10AD100017FC00286ED0FEE70423C0F83431B1B12F
:10AD20000C23D107C0F834317FF531AFD4F844316A
:10AD30004FF4803143F00203C4F84C1143F0010397
:10AD4000C4F844314FF40033C4F848311FE7D30747
:10AD50007FF51DAFD0F8443143F00203C0F8443111
:10AD60004FF48033C0F84C3111E70823C0F8343178
:10AD7000D3077FF50CAFD4F84431DFE7D4F8A03126
:10AD80001A6842F080021A601A6842F040021A60A3
:10AD9000BDE8F0870BB194F89021242384F890212A
:10ADA0003846C4F894312B6823F001032B603AF045
:10ADB00051F901283FF425AFD4F8443143BB6B6807
:10ADC00023F490436B60AB6823F02A0311E7D4F8B7
:10ADD000A0311A6842F480721A609A6842F0010247
:10ADE0009A601A6842F020021A601A6842F0100253
:10ADF0001A6065E7C4F88861C4F8D4706860BDE87B
:10AE0000F08784F89031D8E638463AF097FAE5E6CC
:10AE100038463AF093FAD2E784F890012B6843F46D
:10AE200080732B60AB6843F00103AB60AB6843F009
:10AE30004003AB6041E700BF85060408B50604087F
:10AE4000B906040810B50409013C052C1BD8104AAA
:10AE500000F00F0302EB4402B2F8F40340FA03F2ED
:10AE600012F0010211D0012202FA03F3013B184053
:10AE700046F04EF9074B084A234413F8883C034434
:10AE800002EBC30010BD002010BD104610BD00BF76
:10AE90003815050830260508001901202DE9F84F5E
:10AEA0006D4EC0EB001306EBC303D3F8A849002C8A
:10AEB00000F08A8093F8188A0546070140463EF064
:10AEC00039F901224FEA581308F01F08013B02FA32
:10AED00008F2032B08D8DFE803F0ADB302B95F49ED
:10AEE0000B6A23EA02030B627B1B05F1010B06EBE5
:10AEF000C3035FFA8BFB93F8AC09FFF7A3FF80460F
:10AF000018B1122380F807B083717B1B06EBC303D3
:10AF100093F8AD09FFF796FF824618B1132380F826
:10AF200007B083717B1B06EBC30393F8AE09FFF7F1
:10AF300089FF814618B1142380F807B083717F1B05
:10AF400050462E2106EBC70696F8B029FFF750FAB7
:10AF500096F8B12948460E21FFF74AFA96F8AF292C
:10AF60002E214046FFF744FA23683D4A23F0400370
:10AF7000944223602AD03B4B9C4231D103F50033ED
:10AF80001A6A42F480421A621A6A22F480421A62F1
:10AF9000636843F48053636023685B060CD42068C5
:10AFA00040F217323049314B01400A432260626857
:10AFB000134043F4E0636360E36923F40063E361F7
:10AFC000236843F040032360BDE8F88F234B5A6A9F
:10AFD00042F480525A625A6A22F480525A62D7E787
:10AFE000234B9C421BD0234B9C420DD0224B9C42B6
:10AFF000CED103F568435A6A42F480125A625A6A03
:10B0000022F480125A62C3E703F582335A6A42F48B
:10B0100000525A625A6A22F400525A62B8E703F5A3
:10B02000FE331A6A42F400421A621A6A22F400429B
:10B030001A62ADE709494B6923EA02034B6153E702
:10B0400006494B6A23EA02034B624DE703490B6949
:10B0500023EA02030B6147E7001901200038024090
:10B0600000300140003800404000FFFFFBF0FFFFD0
:10B07000003C0040003401400050014070B50468BD
:10B080000546236A1B697BB1236AD0F894001B69CB
:10B090009847012827D0022801D005E02362236ABF
:10B0A000DA691433002AF9D1236ADA694AB958698E
:10B0B00008B399692162BDE87040C3E9052246F0F2
:10B0C00023BA216A143394F824200E7B2362F6B24B
:10B0D000DAB996B92846FDF7F9FF28460121BDE8FF
:10B0E0007040FCF7F3BF236A01462846143B2362F5
:10B0F000FCF7ECFFD8E7206270BDAB68002BE9D00D
:10B100009A88196812048A61E4E700212846FCF74E
:10B11000DDFF002384F82430002EDBD0EDE700BFF4
:10B1200038B58569002D3CD02C68236A1B7B53BB46
:10B13000204643F085FC236A5B6803B3236A5A68A0
:10B14000236A22F01F025968236A01F01F019B68DD
:10B150001F33194421F01F01BFF34F8F00290ADD6F
:10B1600002F1200311440F488B42C0F85C221A46BA
:10B1700003F12003F8D1BFF34F8FBFF36F8F284641
:10B18000BDE838407AE7AB68002BD1D01A6820467A
:10B190009B88936143F054FC236A5B68002BCDD1FC
:10B1A000EDE738BD00ED00E038B5846904B938BD7D
:10B1B0002568284643F044FC2B6A1B7B1BB92046BC
:10B1C000BDE838405AE7A368002BF8D01A6820463B
:10B1D0009B889361BDE8384050E700BF08B51D204B
:10B1E000FFF730FE08B183794BB11E20FFF72AFE2E
:10B1F00008B1837903B108BD5523C38008BD552329
:10B20000C380F2E72DE9F04F002391B0A24E0193E5
:10B21000A24BDFF8909293F89AEBDFF894A20EF12C
:10B22000FF379F4DCDF808E0FBB20093DFF88CB2FA
:10B23000DBF80070BB0AA3F58013522B00F2CF801D
:10B24000534493F800340D2B00F2C98015F90380A4
:10B25000029B012B00F01581029B022B02D1B8F159
:10B26000080F3AD10024214640460FF05BFC0FF056
:10B27000E1FC90F800C0BCF1000F18BFBCF1540F06
:10B2800014BF4FF0010C4FF0000C40F0F08004347C
:10B29000A4B2102CE7D1019B002B00F0AB80814AB7
:10B2A0000CE0534493F800340D2B0ED8EB56434575
:10B2B0000ED002F586724A4500F0988091680B68BE
:10B2C0009B0AA3F58013522BEBD900234345F0D101
:10B2D0004B799BF805109942EBD10BF11C0BB34550
:10B2E000A6D1019B09F586790133042B01939DD1E9
:10B2F0006D4A4FF0010B92F8F83502F5876A013379
:10B300000393039B5B4567D0644BDAF80C7093F8AA
:10B31000AE2B9AF810300093002F5DD062493B6845
:10B320004D686248B988002D1844029301914FEA94
:10B33000902040F3C8805B49002405E0013401F50A
:10B340008671AC4200F0BC800B688342F6D1554B4D
:10B350004FF48672019D02FB0434009B0322CAF85D
:10B360000C708AF81030019BCAF81840B3FA83F6C3
:10B37000C6F11F035800CAF80430BA7187F807B045
:10B3800002FA00F7A16C0122D4F854C0394302FA42
:10B3900000F002FA03F3A164216D0143D4F8AC007C
:10B3A000216541490F7899B2002F00F0718143EA7D
:10B3B0000C036365029B9D61FCF76AFF0BF1010BB7
:10B3C0002046FCF739FF0AF1200A40F20113BBF1D5
:10B3D000090F2AF8043C94D111B0BDE8F08F009B0E
:10B3E000012B7FF67AAF4FF000083BE7BCF1000F6E
:10B3F0007FF473AF5846FCF7E5FE9BF805E0C3B257
:10B40000022B00F2958300F1010C294A0CEB4C0C45
:10B4100002F57D704FEA8C0C03E02C32904200F074
:10B42000878313689F42F8D113797345F5D152F899
:10B430000C30002BF1D01F48002142689A4212D0F4
:10B44000013124301029F8D14FF0FF3303EBC3034F
:10B45000194A02EB830393F89830002B7FF43DAF39
:10B46000C9F808B03DE74B1CDBB2013BEEE7019B9E
:10B47000002B7FF414AF0BF11C0BB3457FF4D8AE57
:10B480002FE7B8F1010F3FF4EDAE0BF11C0BB34504
:10B490007FF4CEAE25E700BFAC26050800190120D9
:10B4A000CC940508E8010020E00100200000FEBF68
:10B4B000381505087C00012000000120B025050892
:10B4C000042C00F0F3804FF48671B44B01FB05337C
:10B4D00019690591002900F0FA8298600130542121
:10B4E0000692C4B2AD4A83F8101183F811416B1C67
:10B4F0005360059B18461E685B790493FCF762FE57
:10B50000C3B2022B00F2148300F1010EA4494FF0E4
:10B51000000C069A0EEB4E0EDDF810904FEA8E0EE0
:10B5200006E00CF1010C2C31BCF1170F00F0008388
:10B530000B689E42F5D10B794B45F2D151F80E3094
:10B54000002BEED098462C2300EB4000944903FBDF
:10B550000CF3DFF8809203EB800390480B441969E9
:10B560004FF4867303FB05034846C3E9078143682C
:10B570000021434507D00131243010293FF42CAF7E
:10B5800043684345F7D14B1C8649DBB2013B03EBD3
:10B59000C30301EB830393F89810079100297FF40C
:10B5A0001BAF4FF48671804883F899404FF08C0CA4
:10B5B00001FB05F1794C062A06914FEAA10100FB37
:10B5C00001F17A4800F54C7E06982044029CC0F8B0
:10B5D00000C10CFB01FC01EB4101C46001EB011156
:10B5E000724C0EEB4C0E04EB81044FF05401C0F88A
:10B5F000FCE083F898104FF033030699C0F8B83098
:10B600006B4BC0F8B44003EB01046A4BD3F82C1623
:10B6100000F04B82072A684B6848694A18BF1A46EF
:10B62000684B18BF03465D48B1FBF3F3B1FBF2F280
:10B63000013B4FF48671013A01FB05019BB2A1F871
:10B64000BC20A1F874302366069B03F1580100F179
:10B650000803304619440023A4F858306366E365B4
:10B6600041F0FAFA3368049A43F0800333600C2AFD
:10B6700023D8DFE812F0C201220022002200A0013C
:10B68000220022002200E2012200220022007C018E
:10B69000C6F12F062D0402FA06F33A4643EA0C03DC
:10B6A0006365029B9D61FCF7F3FD87E60323414A36
:10B6B00082F8AF3B11B0BDE8F08F384A4FF4867383
:10B6C000304603FB0523022259693368029123F0B7
:10B6D0000103336000230A930D930F9360230893B3
:10B6E0004FF480730E93012309930A23CDE90B32A3
:10B6F00008AA41F069F90299B1F5807F00F0FB8159
:10B7000000F2D681102900F0008200F2E7810129C1
:10B7100000F0F881042915BF4FF4006308233C2092
:10B72000002006F1180211580B431350059B18799D
:10B73000002840F0A981336843F0010333600023FF
:10B74000D9F804200133904500F09A81102B09F1BB
:10B750002409F5D14FF0FF33124A03EBC30302EB88
:10B760008303D86F184B984214BF962095203DF064
:10B77000E1FC049A0C2A00F28081144B03EB420393
:10B78000B3F87CC04FF48673044A114803FB0523C9
:10B7900000F26471A3F818C0002324E0E001002047
:10B7A00038150508000001206B4CA407AC120020DE
:10B7B000E80100200019012044950800D0DD0600B2
:10B7C0001055220040771B0000600240302605081B
:10B7D000D81200207C000120964200F087810133BE
:10B7E000042B00F0A88151F83320002AF4D1D0F8BE
:10B7F00084270132C0F8842700EBC300DB00C0F8C7
:10B80000646719440798234690228E884CEA060CF8
:10B810000026A1F804C0BF49FEF792FB4FF48673DF
:10B82000BD4A40214FF4403CBC4803FB052804239B
:10B83000D8F81C502A6842F010022A602A6842F0A8
:10B8400014022A60C4F8A860C4E91F66C4E9286627
:10B85000D8F82020A1674FF48061C4F898C04FF455
:10B86000804CC4F88410E9B2C4F89C30C4F8942029
:10B8700010390292D8F8B820A0FB010125F0FF0092
:10B88000C4F890204FF48052D8F80C90D940C4F8F6
:10B890008820069B09F1180209F11009226703F1BB
:10B8A00070029F4B1A44D8F8B430C4F88CC0636758
:10B8B000CDE9040141F094FDD5F800E0069BC4F801
:10B8C00020E0D5F814E003F1B802954BC4F824E069
:10B8D000D5F804E01A44029BC4F828E0D5F808E043
:10B8E000C4F82CE0D5F80CE0C4F8DC300423C4F82C
:10B8F000C860C4F8E4304FF48063C4F8F060C4F862
:10B90000CC304FF40033C4F830E0C4F8E030C4E980
:10B910003066C4E93A664FF40066D8F80031C4F8DE
:10B92000B890C4F8D0604FF48046C4F8D830D8F846
:10B93000FC30C4F8D460C4F8BC30DDE9040141F047
:10B940004FFD2B6863636B69A3636B68E363AB684C
:10B950002364EB6863642B6843F010032B602B684F
:10B9600043F014032B603B68BD880293F5E4336811
:10B970004FF4867268494FF0020E23F001033046FF
:10B9800002FB05124FF48051516108AA3360002375
:10B990000A930D930F93602308934FF480730E93D3
:10B9A000012309930A23CDE90B3E41F00DF84FF432
:10B9B00000630420B5E633684FF4867256490220CE
:10B9C00023F0010302FB05121021516108AA336024
:10B9D00000230A930D930F93602308934FF4807311
:10B9E0000E93012309930A23CDE90B30304640F032
:10B9F000EBFF00204FF4006393E633684FF4867248
:10BA00004549304623F0010302FB05120121516133
:10BA100002223360002309910A930D930F93602350
:10BA200008934FF480730E930A23CDE90B3208AAD2
:10BA300040F0CAFF0020082373E633684FF4867293
:10BA40003549022023F0010302FB05124FF48071F7
:10BA500051616022336000230E910A930D930F937E
:10BA60000123CDE908230A2308AACDE90B3030468B
:10BA700040F0AAFF0823042053E64FF0000C81E6B3
:10BA8000DBB20793013B67E6FFF7DCF9029038B1C0
:10BA90000599CA790221FEF7D3FB5423029AD38079
:10BAA000736C43F40043736445E61E4A1E4BBAE5CB
:10BAB000B1F5805F22D0B1F5803F19D0B1F5806F2C
:10BAC00015BF4FF4006308233C20042029E602231D
:10BAD000164A82F8AF3B11B0BDE8F08F402915BF80
:10BAE0004FF4006308233C2000201AE6DB0088E6C0
:10BAF00008233C2015E60823042012E64FF40063D7
:10BB000004200EE6002008230BE600204FF400631B
:10BB100007E600BFDD820008E0010020ABAAAAAA68
:10BB2000E8010020882A1100A0BB0D0000190120A7
:10BB300000235B68FFDE00239B88FFDE08B900203E
:10BB400070472DE9F04F00228DB02F2104460FF0F1
:10BB5000C7F80646C8B190F80590944FD0F800A0F9
:10BB6000A7F81897FEF7EAF878B1D0E901530193E6
:10BB70005DB1DFF8708200224146404643680132E1
:10BB800024309D4205D0102AF8D100200DB0BDE828
:10BB9000F08FD2B2864B013A02EBC20203EB820075
:10BBA000920090F898B0BBF1000FEED111442F2213
:10BBB000C7F8D8A68A83D7F82C167E4A914280F01F
:10BBC000D6805A46090A7C48C7F8DC260022A0FB2A
:10BBD00001107A49C7F8E826C7F8E02602090009EB
:10BBE000A1FB0212C7F8E4065208A7F8B22B5200D4
:10BBF000A7F8B02B97F8152702F0FF01002A00F0F4
:10BC0000C280022250466E4987F8152739F08EF916
:10BC10000122204687F81527FFF714F9C7F8B40B5F
:10BC200028B12F21C1804E21F279FEF709FB019B3B
:10BC30000022C7F8B85BB9F10C0FC7F8BC3B614BE9
:10BC4000C7F8C42BC7F8D42BC7F8DC2BC7F8E42BF4
:10BC5000C7F8E82B196B41F400111963196B01F453
:10BC6000001103910399196B41F4800119631B6B57
:10BC700003F480030493049B4FF04003C7F8C03BD8
:10BC80004FF48063C7F8C83B4FF48053C7F8CC3BF0
:10BC90004FF48043C7F8D03B4FF40033C7F8D83B8C
:10BCA0004FF00303C7F8E03B70D8474B03EB490361
:10BCB000B3F89840A246083444494346002207EBB3
:10BCC0008400C0F8D816A1F59C61C7F8F01B59682C
:10BCD000013224338D425CD0102AF8D14FF0FF326C
:10BCE00002EBC202324B03EB8203D86F384B98420F
:10BCF00014BF962095203DF01DFA0023D8F80420AB
:10BD0000013308F12408954246D0102BF6D107EBF9
:10BD100084075846534660222E49FEF711F9D7F89A
:10BD2000D80638F00DFC00287FF42FAFB4796021DD
:10BD30000A904A46630005910B9005A903F002039F
:10BD4000069009900793E300234803F00803089343
:10BD50003CF02AFB00287FF418AFA30749461E4891
:10BD60001DD539F053F9B0FA80F040090EE71B4AAF
:10BD70001B480A44A0FB0202920D013A92B2501CE9
:10BD8000B1FBF0F11EE787F814173AE79246144624
:10BD900091E7D2B2013AA3E75FFA83FBB7E739F044
:10BDA00095F8B0FA80F04009F0E600BF00190120D4
:10BDB00000000120006CDC02598B4F01ABAAAAAA3B
:10BDC000DC1F01200038024030260508B82401207D
:10BDD00000600240DD930008D81F012000366E018C
:10BDE000819F5E167C000120F8B50E4C94F8F87522
:10BDF0009FB104F5C064C7F109070925013D0ED0C4
:10BE0000A6683079FFF71EF8217DF27908B1FEF7B8
:10BE100017FAAF4204F1A004F0D10120F8BDAB68DD
:10BE2000FFDE00BFE0010020F8B539F06DFF1B20F8
:10BE3000FFF708F808B12923C3801C20FFF702F898
:10BE400008B12923C3801E4CD4F8A43E13B10023AB
:10BE5000C4F8A43E1B4E01250027C4F8A06E84F848
:10BE60008C5E84F8187C3DF059FD06F11C03C4F883
:10BE7000A43E94F8C93EAB4201D02846F8BDD4F8A0
:10BE8000C05E543695F8BC23C4F8BC6E012A11D0AC
:10BE90002C68032085F8BC33D4F8043823F002035F
:10BEA000C4F8043838F042FBA36843F00103A360F0
:10BEB00085F8BC730023044A184682F82330F8BD85
:10BEC00000190120BC02012000ED00E02DE9F04145
:10BED000EFF31185502383F31288D0F800311B68EB
:10BEE00013F0010304D0EDB285F31188BDE8F081B1
:10BEF000D0F894210446D0F898110A4302F02102A8
:10BF0000212AF0D0D0E90912914250D090B23ED807
:10BF1000194623691B1A9BB2D4F89461A1620021CF
:10BF2000202E84F8A411DED1A1698918DBD0B3FAE0
:10BF300083F77F09002BD6D094F89021012AD2D024
:10BF40000122D4F88801A4F8723184F890212122CA
:10BF5000C4F89C71D4F82081C4F86C11A4F8703135
:10BF6000C4F89421B0B1144A0765C263134A02644D
:10BF7000134AC26408F1280238F07CFB50B1102348
:10BF800084F89071C4F89C31C4F89461ABE7081A46
:10BF900083B2C1E700234022C8F8202084F8903102
:10BFA000D8F8083043F08003C8F808309BE7012335
:10BFB00080F8A43197E700BF5D06040881060408F5
:10BFC000B906040870B5D0F820410546E369990622
:10BFD00014D5606AEB6AC0B2002B73D0296B984706
:10BFE000D5F82041236823F480732360A36823F0ED
:10BFF0000103A360A36943F00803A361E369DA07BF
:10C0000001D501232362E3699B0701D50223236243
:10C01000E3695E0701D504232362E369180701D5AC
:10C0200008232362E369590615D54023236295F856
:10C03000BD61002E30D0D5F80031D3B12846FFF7CE
:10C0400045FF95F8A431002B48D095F8BD61D5F88F
:10C050002041002E4AD0D5F8003153B1E369DB0608
:10C0600006D56B6B13B19847D5F820411023236296
:10C0700070BDE3691A06F1D5D5E90923934230D0A2
:10C08000A969CA5C0133D2B2A2622A69B3FBF2F198
:10C0900002FB1133AB62E1E795F8B201FEF7D2FE85
:10C0A000236823F008032360012385F8BD310028AD
:10C0B000C1D032462021FEF7C3F8D5F80031002B5D
:10C0C000BCD1D6E7EB696A69D054EB69EA68013301
:10C0D000B3FBF2F102FB1133EB6181E7D5F82041AC
:10C0E000B9E7236823F080032360B7E795F8B2012E
:10C0F000FEF7A8FE236823F008032360012385F8D8
:10C10000BD310028A7D032462021FEF799F8A2E7DA
:10C11000BFF34F8F0549064BCA6802F4E062134330
:10C12000CB60BFF34F8F00BFFDE700BF00ED00E025
:10C130000400FA050021032008B5FEF769FB72B67A
:10C14000FFF7E6FF08B572B6FFF7E2FF800AA0F539
:10C15000801052281CD80F4B034493F800340D2B49
:10C1600016D8013910B40C4C04EB831CD4F82C46BF
:10C170008BB2DCF8CC0E0CF56D61CCF8D83EB4FB7C
:10C18000F2F2013A5DF8044BCCF8D02E38F0CEBE76
:10C19000704700BF3815050800190120F8B5830A5B
:10C1A000A3F58013522B52D804465748034493F802
:10C1B00000040D284BD8554D860105EB8013D3F8AC
:10C1C000CC7EA74243D00139C3F8CC4E89B2C3F824
:10C1D000D81ED5F82C16B1FBF2F100220139C3F8B4
:10C1E000DC2EC3F8D42EC3F8E02E93F8092FC3F841
:10C1F000D01E02F0FF015AB345490223AF1901EBEB
:10C200008011204687F8093F043138F08FFE012362
:10C21000B4F1804F87F8093F3E4BA4EB0303B3FA18
:10C2200083F34FEA531316D0ABB93B4A944257D02D
:10C2300002F58062944253D0384902F57C42944220
:10C2400018BF8C422FD002F5705294422BD0F8BD0B
:10C2500083F8081FD0E7AA1992F8081F0129F6D021
:10C26000022182F8091F2E49A06801400020A16028
:10C27000012182F8091FAA19022182F8091F6268A8
:10C28000A16803B908B122F470022E4422F07002B2
:10C2900021F08001012000236260A16086F8090F6F
:10C2A00086F8083FF8BDAA1992F8081F0129CED0D8
:10C2B000022182F8091F1A49A06801401948A160AB
:10C2C0000121201A82F8091F0021B0FA80F082F8BB
:10C2D000081F124A40099442CDD00028CBD1F8BDA6
:10C2E000AB1993F8082F012AB1D002210C4A83F828
:10C2F000091FA0680240A260012283F8092F83F879
:10C30000091F6268A168C0E73815050800190120F7
:10C31000CC2701200000014000040040000C004038
:10C320008800FEFF0004014003689B0AA3F5801308
:10C33000522B00D970470F4A134493F800340D2B49
:10C34000F8D8022210B40C4C407904EB831C20FA7C
:10C3500002F3DCF8CC0E02FA03F3C26829B922EA30
:10C3600003035DF8044BC360704713435DF8044B4F
:10C37000C3607047381505080019012003689B0A3F
:10C38000A3F58013522B10D8084A134493F80024C5
:10C390000D2A0AD8407902230549D84001EB8212C0
:10C3A0008340D2F8CC2EDB43136170473815050863
:10C3B0000019012001490248FCF7AEBF001C012012
:10C3C0000000014010B5064C064804F54071FCF72A
:10C3D000A3FF04F28C410448BDE81040FCF79CBF69
:10C3E00000190120000001400044014002494FF0C3
:10C3F0008040FCF791BF00BF2C1C0120014902487E
:10C40000FCF78ABF581C0120000400400149024883
:10C41000FCF782BF841C012000080040014902484B
:10C42000FCF77ABFB01C0120000C0040F8B5164D97
:10C43000164E2A69EB681A404FF00040B2FA82F3B8
:10C44000EAB120FA03F3012A6FEA030302EA0301C7
:10C450002B610A46F2D1D6F804748FB1013F002354
:10C46000BFB2C6F80434D6F8004434B1236820467D
:10C47000394698476468002CF8D10022DCE7F8BD03
:10C48000EF6ABFB2EFE700BF0010004000190120C3
:10C4900001490248FCF740BF341D0120000401405F
:10C4A00010B5064C064804F23441FCF735FF04F59C
:10C4B000A2610448BDE81040FCF72EBF001901201E
:10C4C00000040140001C004001490248FCF724BF61
:10C4D000601D01200040014001490248FCF71CBFDB
:10C4E000B81D01200048014001490248FCF714BF73
:10C4F000E41D012000180040800AA0F58010522899
:10C500000ED8084B034493F800240D2A08D8064B94
:10C5100003EB8213D3F8CC2E136843F001031360AE
:10C52000704700BF381505080019012037B590F88D
:10C5300067380446032B2FD10023204D8DF8073098
:10C540009DF8073094F868289A4201D803B030BDAE
:10C550009DF8073005EBC30393F898318BB181F058
:10C56000010383B19DF8073005EBC303D3F89401B1
:10C57000FDF76CFB9DF807300133DBB28DF8073017
:10C58000DEE70B46EDE79DF8073005EBC303D3F874
:10C590009401FDF761FBEDE7D0E910039B7903F00F
:10C5A0000103994204D003B0BDE83040FDF74EBB13
:10C5B00003B0BDE83040FDF74FBB00BFF8290120B4
:10C5C00038B5044600790D4650B1FEF73BFC08B182
:10C5D0000323C380E2792946BDE83840FDF708BF50
:10C5E00038BD10B504462221FFF7EAFF2046FFF7C9
:10C5F000C5FE20460121BDE8104095E610B5044671
:10C600000121FFF7DDFF00212046BDE810408BE649
:10C6100038B510F8133CA0F66C041BBB94F85838DE
:10C620008BBBD4E909239A421CD05A1CA169A2628F
:10C63000CB5C21695B008A4228BF002243F400736F
:10C64000A262A4F85C380A2384F85A38012384F8DB
:10C65000583894F86738012B01D0042B02D1606C54
:10C66000FFF7CCFF94F85438002B6DD194F855386F
:10C670000133DBB2092B84F8553825D12046BDE8BB
:10C680003840FBF7C7BE94F95A586DB1B4F85C183E
:10C69000013D20464B0801F00101A4F85C38FFF78A
:10C6A00045FF84F85A58DDE7D4E9092384F858583F
:10C6B0009A42D7D194F86738012B01D0042BD1D1FD
:10C6C000606CFFF78EFFCDE70A2B3DD194F8573809
:10C6D0002BB9B4F85E3843F00103A4F85E3823792F
:10C6E000D9070AD5B4F85E08820501D4C30718D467
:10C6F000B4F864380133A4F864380122002384F8C4
:10C70000542894F8572884F85538012A1CD16179A7
:10C71000606C84F8573801F00101BDE838403BF007
:10C7200065BDE36AC0F3470013B1216B9847E4E7A6
:10C73000E3696269D054E369E2680133B3FBF2F163
:10C7400002FB1133E361D8E738BD00BF2DE9F041AA
:10C75000A34CA4B0D4F85C38022B00F03582A14879
:10C76000A14AA249121A44F0CBFAA148A14AA2490F
:10C77000121A44F0C5FAD4F85838012B00F2C180DF
:10C7800003EB43039D4A9E4D02EB430032F8132016
:10C7900041888388C5E9CC21C5F83833994C9A4E35
:10C7A0009A4BB2FBF1F29A4901FB02F20021C6F862
:10C7B0002C26D4F8882042F47002C4F888201A6825
:10C7C00042F001021A609960924A18680240924849
:10C7D0001A60C0F30807914A5A601A6822F480224E
:10C7E0001A60D96007B1FEE78D49A0604FF6FF00DF
:10C7F0000A688C4B42F400720A60E26802401343FC
:10C80000E3603CF075FFBFF34F8FBFF36F8FC4F849
:10C810005072BFF34F8FBFF36F8F636943F40033E0
:10C820006361BFF34F8FBFF36F8FC4F88470BFF3A2
:10C830004F8FD4F8803043F6E07CC3F3C90EC3F3C6
:10C840004E33580100EA0C01734641EA8372013B02
:10C85000C4F860225A1CF8D1203810F1200FF1D111
:10C86000BFF34F8F636943F480336361BFF34F8F2E
:10C87000BFF36F8F6A49654B0A6842F480720A60A1
:10C88000196C694A41F080511964196C01F08051AA
:10C8900002910299116841F4404111601268D5F883
:10C8A000307302F440420192019A9A6802F00C023D
:10C8B000042AD5E9CD8100F08D809A6802F00C023F
:10C8C000082A00F08380514A584C136843F480339F
:10C8D0001360D4F8D40104E0D4F8D4311B1A642BCB
:10C8E00073D813689D03F7D5484A936803F00C0387
:10C8F000082B6AD0136823F080731360D4F8D40136
:10C9000008E03F4DD5E9CC2148E7D4F8D4311B1AD3
:10C91000022B5AD813689B01F7D40B064FEA580133
:10C9200043EA8713013943EA0143414919435160FE
:10C93000136843F080731360344AD4F8D41104E0D0
:10C94000D4F8D4315B1A022B3FD813689D01F7D578
:10C95000136C43F080531364136C334A03F0805319
:10C960000393039B136843F480331360D4F8D4110A
:10C9700005E0D4F8D4315B1AB3F57A7F2ED853682A
:10C98000D803F6D5136843F400331360264AD4F86D
:10C99000D41105E0D4F8D4315B1AB3F57A7F1DD8F1
:10C9A00053689B03F6D54FF400134FF4C07204A8EC
:10C9B00004934FF0006321930723CDE90823032359
:10C9C0000A9338F02BF8A8B3FEE7FEE75B685B023A
:10C9D0007FF579AF0D4B154C1B6885E7FEE700BF6F
:10C9E0000020004000000000A83900006024060874
:10C9F00000000020E001002046810608E42605082A
:10CA00000000012000ED00E0001901200038024084
:10CA100040420F00FFFFF6FE000000081030002427
:10CA2000003C02400003FA0500700040F829012094
:10CA300008004020674A136803F00F03062B0AD84A
:10CA4000136823F00F0343F007031360136803F028
:10CA50000F03072B63D1604B9A6842F4E0529A604F
:10CA60009A6842F460429A609A6822F0F0029A60F2
:10CA70001A68900153D59A6841F2883022F0030277
:10CA800042F002029A60D4F8D41104E0D4F8D42120
:10CA9000521A824243D89A6802F00C02082AF5D151
:10CAA0004C4A136819070AD5136823F00F0343F0A3
:10CAB00007031360136803F00F03072B2FD1464DB4
:10CAC000464CAB6823F4E05343F4A053AB60AB682F
:10CAD00023F4604343F40043AB6037F06BFFAB6873
:10CAE000C3F30313234493F8C03020FA03F3C6F8CA
:10CAF0002C363CF0FDFD002304A8CDE91333CDE92D
:10CB00001533CDE91733CDE91933CDE91B33CDE921
:10CB10001D33334B049337F081FF08B1FEE7FEE786
:10CB200002234FF0007204A8CDE90633D823CDE9E3
:10CB3000042301230B9337F071FF00B1FEE7D5F812
:10CB40008C3023F08073C5F88C30D5F88C3043F0EE
:10CB50008073C5F88C30AB6803F00C03042B2ED027
:10CB6000082B12D01F4B2049B7FBF8F201FB02F251
:10CB700019498968C1F303110C4494F8C010CB40E3
:10CB80009A42C6F82C361CD0FEE76B686A6813F42C
:10CB9000800F6B6802F03F0218BF1449C3F388137B
:10CBA00008BF1049B1FBF2F202FB03F30A4A5268D4
:10CBB000C2F3014201325200B3FBF2F3D3E70B4B55
:10CBC000D1E724B0BDE8F08100210320FDF720FE6D
:10CBD000FFF79EFA003C024000380240302605086C
:10CBE000C0FF03000024F40040420F0000127A004E
:10CBF00030B4EFF31182102383F312880C4C4FF002
:10CC0000E0200C4B0025D4F8D415D2B20131C4F881
:10CC1000D4158169C3F8D811C3F8DC51016982F3D6
:10CC20001188D3F8D421013230BCC3F8D421704725
:10CC300000190120F829012030B4EFF311831022EC
:10CC400082F312884FF0E0220F4894691169C903FA
:10CC500003D50121C0F8DC1194690C49DBB2D1F88D
:10CC6000D455D0F8DC2183F311884FF47A70D1F8D1
:10CC7000A4192A4400FB01F31B1BB3FBF1F330BCE6
:10CC800000FB0230704700BFF82901200019012085
:10CC9000134B5B68C3F308030BBBEFF31183F3B9CA
:10CCA000104B4FF0E02C10B40F4CD3F8D425DCF827
:10CCB0001800D3F8D4158A42F7D1D4F8D811884295
:10CCC000F3D8D3F8A4494FF47A7101FB04F31B1A8B
:10CCD000B3FBF4F35DF8044B01FB02307047ABE7A4
:10CCE00000ED00E000190120F82901202DE9F04FA6
:10CCF000384C83B023781BB9012003B0BDE8F08F16
:10CD0000354B04F58764DFF8D8B04FF0000AD3F84C
:10CD1000D4354FF6FF7894F8C0910BF53875ABF524
:10CD2000F1662E4F019314E0B0F5606F43D0A881F7
:10CD3000B0EB0801019A584618BF01210CF07CFAAB
:10CD40000AF1010A0BF15C0B20341435BAF1080F1B
:10CD50002AD0CA4528D0A0696268D0E93D0144F0D4
:10CD600093FB4FF6FE7397F8E121984214D0542AB2
:10CD700004D1B7F8E4210132A7F8E421D6F8702AEB
:10CD8000404502F10102C6F8702ACDD1D6F86C2ACE
:10CD90000132C6F86C2ACBE7542AD1D1B7F8E62184
:10CDA0000132A7F8E621CBE70123012086F86C3B8E
:10CDB00003B0BDE8F08F084B93F8942602EB4202D3
:10CDC00003EBC202524492F841260D2AAFD18022D1
:10CDD000AA77ADE7E001002000190120F829012021
:10CDE000601A002070B544F097FB80B31A4845687C
:10CDF000002D10DD002410F8086B16B1037F012B05
:10CE00001FD04269013400F586701368AC4243F0CC
:10CE100001031360F1D1FFF73BFF104BD3F88447B8
:10CE2000002C0DDD03F2647303EBC40419680833AE
:10CE300033F8042CC868A34242EA0002CA60F5D164
:10CE400070BD002380F8FC30FBF7F6F9D9E741F01C
:10CE5000DFFA0028CAD170BDE0010020D8120020FE
:10CE60002DE9F04F894C87B023781BB9012007B01A
:10CE7000BDE8F08F864BD3F8D4350493FFF708FF55
:10CE800094F8F8250192002A00F0F880814A04F510
:10CE9000C0640027D2F8783B02F5F16B02F6682AED
:10CEA0002646A0EB03080594B8F1000F03DBF36DF1
:10CEB000434500F3C98007EB8703744A02EB431331
:10CEC00093F8583603F0FF0E002B00F08780D6F859
:10CED0009410B36870481A68CBB221F0FF01103B80
:10CEE000A0FB03036D481B09C35C0B44B1895C685C
:10CEF000D368A4B223EA0103C4F11604D360072C5B
:10CF00006CD9644A0121D2F8703A89460133C2F8DB
:10CF1000703A0022D6F89C30154618689C46CDE938
:10CF200002E715E0142D1EDC17F1080E48BF07F1CB
:10CF3000170E4FEA2E1705EB2E1507F1FF3E0131B4
:10CF400002FA07F709FA0EFE8C424EEA07020AD3EC
:10CF500007468C425CF8040FA0EB0707E2D8C5F146
:10CF600015071525E9E7152DDDE902E762D14C4CDF
:10CF7000C2F38421C2F3441004EB810104EB80006E
:10CF8000D1F85011D0F85001090241EA001102F025
:10CF90001F00C2F3C43204EB800004EB8202D0F81D
:10CFA0005001D2F85021014341EA023282EA1221B3
:10CFB00081EA111101F00F010F293BD1C2F30F12C9
:10CFC0004FF6FF718A4235D0B2F5606F40D0AAF8B3
:10CFD0000C207146049A58460CF02EF93046013761
:10CFE000FDF7ECFC019BA0360BF15C0BBB420AF198
:10CFF000140A7FF459AF019B0121059C002203EB29
:10D000008303244804EB431380F86C1BC0F8782B8F
:10D01000A268A03414F8901C126854F84C0C11F05B
:10D02000020F116A14BF41EA80010143A342116259
:10D03000EED11BE71749D1F86C2A0132C1F86C2AEE
:10D04000B7B14FF0000EC4E7002007B0BDE8F08F85
:10D050000F4991F8943603EB430301EBC3033B44C0
:10D0600093F841360D2BB2D180238AF81E30B0E7F9
:10D07000194658220B4843F043FEE2E7054B0122D4
:10D08000019983F86C2BC3F8781BEFE6E0010020D0
:10D0900000190120D8120020ABAAAAAADC94050826
:10D0A00030260508EC1D00202DE9F84FDFF8C88078
:10D0B000FFF7EEFDDFF8C4B08146D8F80460002029
:10D0C0002B4C2C4F002E47DD00234FF486711D465C
:10D0D00001FB0382013392F805219E4245EA0205D5
:10D0E000F6D128435FFA80FADBF80430C3F3080373
:10D0F0007BBBEFF3118363BB4FF0E020D4F8D43552
:10D100008169D4F8D4259342F8D1D7F8D821914237
:10D11000F4D8D4F8A4C94FF47A7202FB0CF0401A88
:10D12000B0FBFCF002FB0300A0EB0903B3F5FA6FC0
:10D13000CCBF002005F001000028C3D1BAF1000FD8
:10D1400004D00C4B93F8E121542A08D05046BDE896
:10D15000F88FFFF771FDE7E782460025C4E7B3F8D3
:10D16000E82150460132A3F8E821BDE8F88F00BF5E
:10D1700000190120F8290120E001002000ED00E065
:10D180002DE9F04F8C4C83B00646D4F8E0B594F806
:10D19000E8350091BBF1000F0BD083F00202BBF821
:10D1A0000410C2F34002120101FA02F2DBF800108F
:10D1B0008A61D4F8DC753FB103F00103BA881B0122
:10D1C00002FA03F33A689361013E7C4DDFF8F0A167
:10D1D000F6B2BBF1000F08D0DBF80020BBF804303A
:10D1E00051690B4218BF1B049361002F00F0DC80D3
:10D1F0003A680120BB8851690B4218BF1B04936138
:10D200000DF0F2FBDDF80080019646466B68C3F333
:10D210000803002B40F0C480EFF31183002B40F093
:10D22000BF804FF0E02CD4F8D435DCF81800D4F8E7
:10D23000D4259342F7D1DAF8D8219042F3D8D4F824
:10D24000A4294FF47A7101FB02F8A8EB0008B8FB9F
:10D25000F2F801FB03884FF0E0296B68C3F3080381
:10D26000002B40F09680EFF31183002B40F091806B
:10D27000D4F8D435D9F81810D4F8D4259342F7D17E
:10D28000DAF8D8219142F3D8D4F8A4C94FF47A72CD
:10D2900002FB0CF0401AB0FBFCF002FB0300A0EB19
:10D2A0000803B3F57A7FD8D3013EAFD1019EBBF11D
:10D2B000000F08D0DBF80020BBF8043051690B42A6
:10D2C00018BF1B049361002F72D03A680020BB88FE
:10D2D00051690B4218BF1B0493610DF085FBDDF80B
:10D2E0000080019646466B68C3F30803002B53D1B8
:10D2F000EFF31183002B4FD14FF0E02CD4F8D4354D
:10D30000DCF81800D4F8D4259342F7D1DAF8D82104
:10D310009042F3D8D4F8A4294FF47A7101FB02F8B3
:10D32000A8EB0008B8FBF2F801FB03884FF0E029F6
:10D330006B68C3F308034BBBEFF3118333BBD4F823
:10D34000D435D9F81810D4F8D4259342F7D1DAF8A7
:10D35000D8219142F3D8D4F8A4C94FF47A7202FBD1
:10D360000CF0401AB0FBFCF002FB0300A0EB08033A
:10D37000B3F57A7FDCD3013EB5D1019E013EF6B212
:10D38000FF2E7FF426AF03B0BDE8F08FFFF754FC0B
:10D39000ECE7FFF751FC82E7FFF74EFC8046C5E75C
:10D3A000FFF74AFC804656E701200DF01DFB29E7F8
:10D3B00038460DF019FB92E70019012000ED00E05E
:10D3C000F82901202DE9F0410746DFF86880FFF7D2
:10D3D0005FFC164C164D0646D8F80430C3F308031C
:10D3E00003BBEFF31183EBB94FF0E02CD4F8D43545
:10D3F000DCF81810D4F8D4259342F7D1D5F8D82109
:10D400009142F3D8D4F8A4C94FF47A7202FB0CF01D
:10D41000401AB0FBFCF002FB0300831BBB42DBD3D2
:10D42000BDE8F081FFF708FCF7E700BF0019012015
:10D43000F829012000ED00E02DE9F843DFF8B08085
:10D44000461E294C4FF0E025284FD8F80430C3F38E
:10D450000803002B44D1EFF31183002B40D1D4F803
:10D46000D435A969D4F8D4259342F8D1D7F8D82176
:10D470009142F4D8D4F8A4094FF47A7202FB00F96F
:10D48000A9EB0109B9FBF0F902FB0399D8F80430C4
:10D49000C3F308030BBBEFF31183F3B9D4F8D4350E
:10D4A000A969D4F8D4259342F8D1D7F8D82191426C
:10D4B000F4D8D4F8A4C94FF47A7202FB0CF0401AE5
:10D4C000B0FBFCF002FB0300A0EB0903B3F57A7F8D
:10D4D000DCD3013EB9D2BDE8F883FFF7ADFBF3E73B
:10D4E000FFF7AAFB8146D1E700190120F8290120A6
:10D4F00000ED00E0154C08B5D4F8F83194F8FE01C1
:10D50000ABB91420FFF798FF00BFD4F8F8315BB136
:10D51000196894F8FE219B8809690B4012B91BB168
:10D52000FEF708FE002BFBD0FBF792F9ECE7196839
:10D530009A880B69134020B1002BE2D10B6913408C
:10D54000FAE7002BDDD00B691340FAE7F829012038
:10D5500001302DE9F84F5D4F4E1E5D4C5FFA80FBA8
:10D560005C4D4FF4FA784FF0E02932210520FFF7A7
:10D5700007FE7B68C3F30803002B40F09F80EFF3A6
:10D580001183002B40F09A80D4F8D435D9F81810C4
:10D59000D4F8D4259342F7D1D5F8D8219142F3D8C5
:10D5A000D4F8A4094FF47A7202FB00FAAAEB010A3C
:10D5B000BAFBF0FA02FB03AA7B68C3F30803002B53
:10D5C00079D1EFF31183002B75D1D4F8D435D9F884
:10D5D0001810D4F8D4259342F7D1D5F8D821914228
:10D5E000F3D8D4F8A4C94FF47A7202FB0CF0401AB5
:10D5F000B0FBFCF002FB0300A0EB0A03B3F57A7F5B
:10D60000DAD3B8F10108B4D14FF47A784FF0E029B9
:10D61000FA215846FFF7B4FD7B68C3F30803002BDB
:10D6200050D1EFF31183002B4CD1D4F8D435D9F875
:10D630001810D4F8D4259342F7D1D5F8D8219142C7
:10D64000F3D8D4F8A4094FF47A7202FB00FAAAEBDB
:10D65000010ABAFBF0FA02FB03AA7B68C3F30803D2
:10D6600033BBEFF311831BBBD4F8D435D9F81810B2
:10D67000D4F8D4259342F7D1D5F8D8219142F3D8E4
:10D68000D4F8A4C94FF47A7202FB0CF0401AB0FB34
:10D69000FCF002FB0300A0EB0A03B3F57A7FDCD3B6
:10D6A000B8F10108B8D1013EBFF45BAFBDE8F88F17
:10D6B000FFF7C2FAEFE7FFF7BFFA9DE7FFF7BCFA03
:10D6C000824679E7FFF7B8FA8246C6E700ED00E048
:10D6D00000190120F8290120094B02460220D3F845
:10D6E0002C16B2EB910F4FEA910307D25B08400072
:10D6F0009A4280B202D2FF28F8D97047704700BF23
:10D70000001901202DE9F04191F80380B8F1000FD4
:10D7100003D100273846BDE8F08100F110060C4621
:10D7200005468978304635F011FF07460028F0D0CD
:10D730004046FDF787FBA861237880460133DBB2C2
:10D7400010B1C3712223837140460D21FCF7DEFF27
:10D750004046FCF77BFA174AD2F8D435632BFBD945
:10D760001548FFF7B9FF154C154BA88202E054F895
:10D77000043F53B13046984703460028F7D0286944
:10D7800085F8D83040F030FEC4E7AC69002CC0D03A
:10D790000C4A412520462021D2F80032A5710133E0
:10D7A000E371C2F80032FCF7B1FF2046FCF74EFAF5
:10D7B000AFE700BF0019012040420F000028050814
:10D7C000B9360408F82901202DE9F84FD0F8AC51FA
:10D7D000174681601E46BC4904460160D5E90B230B
:10D7E000C0E90532EB8EC360AB8E03616B68C0F895
:10D7F000A031C0F82031B54BC0F8A83195F8280009
:10D80000002840F0098195F900905FFA89F8B8F195
:10D81000380F63D8AE4B4B4493F90CB2BBF1000FF9
:10D820005CD048460EF0F0FCB9F1140F00F0868190
:10D83000A8F13308B8F1050F40F2E0804FF000087E
:10D84000C146A44A4FEA400A02EB400090F904C2E4
:10D850005FFA8CF3012B27D80BF1FF304FF00C0E41
:10D8600008239D49C0B21EFB0C3E01F5217B02E05E
:10D870001C31594512D00B78042BF9D14B788342D7
:10D88000F6D151F80E30002BF2D0C4F800310CEB79
:10D890004C0301EB8301CB68C4F80831524492F980
:10D8A0000532013340F0C180D4F8000148B18B4B00
:10D8B0000022596801322433884200F01781102A6F
:10D8C000F7D1D4F8FC0048B1844A002351680133F1
:10D8D0002432884200F0D680102BF7D1012394F82F
:10D8E000B20184F8A431FDF7ADFA022394F8B091A7
:10D8F00084F8BD3194F93830142B00F09080A3F1F6
